{
  "address": "0x7BaF05F65B44e48188ab8E0Fa4bB93abb1E3f69a",
  "abi": [
    {
      "inputs": [
        {
          "internalType": "string",
          "name": "name",
          "type": "string"
        },
        {
          "internalType": "string",
          "name": "symbol",
          "type": "string"
        },
        {
          "internalType": "string",
          "name": "_baseTokenURI_",
          "type": "string"
        },
        {
          "components": [
            {
              "internalType": "string",
              "name": "name",
              "type": "string"
            },
            {
              "internalType": "string",
              "name": "description",
              "type": "string"
            },
            {
              "internalType": "string",
              "name": "image",
              "type": "string"
            },
            {
              "internalType": "string",
              "name": "externalLink",
              "type": "string"
            },
            {
              "internalType": "string",
              "name": "sellerFeeBasisPoints",
              "type": "string"
            },
            {
              "internalType": "string",
              "name": "feeRecipient",
              "type": "string"
            }
          ],
          "internalType": "struct DiscoERC721.ContractURI",
          "name": "_contractURI_",
          "type": "tuple"
        },
        {
          "internalType": "address",
          "name": "admin",
          "type": "address"
        },
        {
          "internalType": "uint256",
          "name": "_numberOfImages_",
          "type": "uint256"
        }
      ],
      "stateMutability": "nonpayable",
      "type": "constructor"
    },
    {
      "anonymous": false,
      "inputs": [
        {
          "indexed": true,
          "internalType": "address",
          "name": "owner",
          "type": "address"
        },
        {
          "indexed": true,
          "internalType": "address",
          "name": "approved",
          "type": "address"
        },
        {
          "indexed": true,
          "internalType": "uint256",
          "name": "tokenId",
          "type": "uint256"
        }
      ],
      "name": "Approval",
      "type": "event"
    },
    {
      "anonymous": false,
      "inputs": [
        {
          "indexed": true,
          "internalType": "address",
          "name": "owner",
          "type": "address"
        },
        {
          "indexed": true,
          "internalType": "address",
          "name": "operator",
          "type": "address"
        },
        {
          "indexed": false,
          "internalType": "bool",
          "name": "approved",
          "type": "bool"
        }
      ],
      "name": "ApprovalForAll",
      "type": "event"
    },
    {
      "anonymous": false,
      "inputs": [
        {
          "indexed": true,
          "internalType": "bytes32",
          "name": "role",
          "type": "bytes32"
        },
        {
          "indexed": true,
          "internalType": "bytes32",
          "name": "previousAdminRole",
          "type": "bytes32"
        },
        {
          "indexed": true,
          "internalType": "bytes32",
          "name": "newAdminRole",
          "type": "bytes32"
        }
      ],
      "name": "RoleAdminChanged",
      "type": "event"
    },
    {
      "anonymous": false,
      "inputs": [
        {
          "indexed": true,
          "internalType": "bytes32",
          "name": "role",
          "type": "bytes32"
        },
        {
          "indexed": true,
          "internalType": "address",
          "name": "account",
          "type": "address"
        },
        {
          "indexed": true,
          "internalType": "address",
          "name": "sender",
          "type": "address"
        }
      ],
      "name": "RoleGranted",
      "type": "event"
    },
    {
      "anonymous": false,
      "inputs": [
        {
          "indexed": true,
          "internalType": "bytes32",
          "name": "role",
          "type": "bytes32"
        },
        {
          "indexed": true,
          "internalType": "address",
          "name": "account",
          "type": "address"
        },
        {
          "indexed": true,
          "internalType": "address",
          "name": "sender",
          "type": "address"
        }
      ],
      "name": "RoleRevoked",
      "type": "event"
    },
    {
      "anonymous": false,
      "inputs": [
        {
          "indexed": true,
          "internalType": "address",
          "name": "from",
          "type": "address"
        },
        {
          "indexed": true,
          "internalType": "address",
          "name": "to",
          "type": "address"
        },
        {
          "indexed": true,
          "internalType": "uint256",
          "name": "tokenId",
          "type": "uint256"
        }
      ],
      "name": "Transfer",
      "type": "event"
    },
    {
      "inputs": [],
      "name": "DEFAULT_ADMIN_ROLE",
      "outputs": [
        {
          "internalType": "bytes32",
          "name": "",
          "type": "bytes32"
        }
      ],
      "stateMutability": "view",
      "type": "function"
    },
    {
      "inputs": [],
      "name": "MINTER_BURNER_ROLE",
      "outputs": [
        {
          "internalType": "bytes32",
          "name": "",
          "type": "bytes32"
        }
      ],
      "stateMutability": "view",
      "type": "function"
    },
    {
      "inputs": [
        {
          "internalType": "uint256",
          "name": "",
          "type": "uint256"
        }
      ],
      "name": "_tokenIdToTimestamp",
      "outputs": [
        {
          "internalType": "uint256",
          "name": "",
          "type": "uint256"
        }
      ],
      "stateMutability": "view",
      "type": "function"
    },
    {
      "inputs": [
        {
          "internalType": "address",
          "name": "to",
          "type": "address"
        },
        {
          "internalType": "uint256",
          "name": "tokenId",
          "type": "uint256"
        }
      ],
      "name": "approve",
      "outputs": [],
      "stateMutability": "nonpayable",
      "type": "function"
    },
    {
      "inputs": [
        {
          "internalType": "address",
          "name": "owner",
          "type": "address"
        }
      ],
      "name": "balanceOf",
      "outputs": [
        {
          "internalType": "uint256",
          "name": "",
          "type": "uint256"
        }
      ],
      "stateMutability": "view",
      "type": "function"
    },
    {
      "inputs": [
        {
          "internalType": "uint256",
          "name": "tokenId",
          "type": "uint256"
        }
      ],
      "name": "burn",
      "outputs": [],
      "stateMutability": "nonpayable",
      "type": "function"
    },
    {
      "inputs": [],
      "name": "contractURI",
      "outputs": [
        {
          "internalType": "string",
          "name": "uri",
          "type": "string"
        }
      ],
      "stateMutability": "view",
      "type": "function"
    },
    {
      "inputs": [
        {
          "internalType": "uint256",
          "name": "tokenId",
          "type": "uint256"
        }
      ],
      "name": "getApproved",
      "outputs": [
        {
          "internalType": "address",
          "name": "",
          "type": "address"
        }
      ],
      "stateMutability": "view",
      "type": "function"
    },
    {
      "inputs": [
        {
          "internalType": "bytes32",
          "name": "role",
          "type": "bytes32"
        }
      ],
      "name": "getRoleAdmin",
      "outputs": [
        {
          "internalType": "bytes32",
          "name": "",
          "type": "bytes32"
        }
      ],
      "stateMutability": "view",
      "type": "function"
    },
    {
      "inputs": [
        {
          "internalType": "address",
          "name": "_minterBurner",
          "type": "address"
        }
      ],
      "name": "grantMinterBurnerRole",
      "outputs": [],
      "stateMutability": "nonpayable",
      "type": "function"
    },
    {
      "inputs": [
        {
          "internalType": "bytes32",
          "name": "role",
          "type": "bytes32"
        },
        {
          "internalType": "address",
          "name": "account",
          "type": "address"
        }
      ],
      "name": "grantRole",
      "outputs": [],
      "stateMutability": "nonpayable",
      "type": "function"
    },
    {
      "inputs": [
        {
          "internalType": "bytes32",
          "name": "role",
          "type": "bytes32"
        },
        {
          "internalType": "address",
          "name": "account",
          "type": "address"
        }
      ],
      "name": "hasRole",
      "outputs": [
        {
          "internalType": "bool",
          "name": "",
          "type": "bool"
        }
      ],
      "stateMutability": "view",
      "type": "function"
    },
    {
      "inputs": [
        {
          "internalType": "address",
          "name": "owner",
          "type": "address"
        },
        {
          "internalType": "address",
          "name": "operator",
          "type": "address"
        }
      ],
      "name": "isApprovedForAll",
      "outputs": [
        {
          "internalType": "bool",
          "name": "",
          "type": "bool"
        }
      ],
      "stateMutability": "view",
      "type": "function"
    },
    {
      "inputs": [
        {
          "internalType": "address",
          "name": "to",
          "type": "address"
        }
      ],
      "name": "mint",
      "outputs": [],
      "stateMutability": "nonpayable",
      "type": "function"
    },
    {
      "inputs": [],
      "name": "name",
      "outputs": [
        {
          "internalType": "string",
          "name": "",
          "type": "string"
        }
      ],
      "stateMutability": "view",
      "type": "function"
    },
    {
      "inputs": [
        {
          "internalType": "uint256",
          "name": "tokenId",
          "type": "uint256"
        }
      ],
      "name": "ownerOf",
      "outputs": [
        {
          "internalType": "address",
          "name": "",
          "type": "address"
        }
      ],
      "stateMutability": "view",
      "type": "function"
    },
    {
      "inputs": [
        {
          "internalType": "bytes32",
          "name": "role",
          "type": "bytes32"
        },
        {
          "internalType": "address",
          "name": "account",
          "type": "address"
        }
      ],
      "name": "renounceRole",
      "outputs": [],
      "stateMutability": "nonpayable",
      "type": "function"
    },
    {
      "inputs": [
        {
          "internalType": "address",
          "name": "_minterBurner",
          "type": "address"
        }
      ],
      "name": "revokeMinterBurner",
      "outputs": [],
      "stateMutability": "nonpayable",
      "type": "function"
    },
    {
      "inputs": [
        {
          "internalType": "bytes32",
          "name": "role",
          "type": "bytes32"
        },
        {
          "internalType": "address",
          "name": "account",
          "type": "address"
        }
      ],
      "name": "revokeRole",
      "outputs": [],
      "stateMutability": "nonpayable",
      "type": "function"
    },
    {
      "inputs": [
        {
          "internalType": "address",
          "name": "from",
          "type": "address"
        },
        {
          "internalType": "address",
          "name": "to",
          "type": "address"
        },
        {
          "internalType": "uint256",
          "name": "tokenId",
          "type": "uint256"
        }
      ],
      "name": "safeTransferFrom",
      "outputs": [],
      "stateMutability": "nonpayable",
      "type": "function"
    },
    {
      "inputs": [
        {
          "internalType": "address",
          "name": "from",
          "type": "address"
        },
        {
          "internalType": "address",
          "name": "to",
          "type": "address"
        },
        {
          "internalType": "uint256",
          "name": "tokenId",
          "type": "uint256"
        },
        {
          "internalType": "bytes",
          "name": "data",
          "type": "bytes"
        }
      ],
      "name": "safeTransferFrom",
      "outputs": [],
      "stateMutability": "nonpayable",
      "type": "function"
    },
    {
      "inputs": [
        {
          "internalType": "address",
          "name": "operator",
          "type": "address"
        },
        {
          "internalType": "bool",
          "name": "approved",
          "type": "bool"
        }
      ],
      "name": "setApprovalForAll",
      "outputs": [],
      "stateMutability": "nonpayable",
      "type": "function"
    },
    {
      "inputs": [
        {
          "internalType": "string",
          "name": "baseURI_",
          "type": "string"
        }
      ],
      "name": "setBaseURI",
      "outputs": [],
      "stateMutability": "nonpayable",
      "type": "function"
    },
    {
      "inputs": [
        {
          "internalType": "bytes4",
          "name": "interfaceId",
          "type": "bytes4"
        }
      ],
      "name": "supportsInterface",
      "outputs": [
        {
          "internalType": "bool",
          "name": "",
          "type": "bool"
        }
      ],
      "stateMutability": "view",
      "type": "function"
    },
    {
      "inputs": [],
      "name": "symbol",
      "outputs": [
        {
          "internalType": "string",
          "name": "",
          "type": "string"
        }
      ],
      "stateMutability": "view",
      "type": "function"
    },
    {
      "inputs": [
        {
          "internalType": "uint256",
          "name": "tokenId",
          "type": "uint256"
        }
      ],
      "name": "tokenURI",
      "outputs": [
        {
          "internalType": "string",
          "name": "",
          "type": "string"
        }
      ],
      "stateMutability": "view",
      "type": "function"
    },
    {
      "inputs": [],
      "name": "totalSupply",
      "outputs": [
        {
          "internalType": "uint256",
          "name": "",
          "type": "uint256"
        }
      ],
      "stateMutability": "view",
      "type": "function"
    },
    {
      "inputs": [
        {
          "internalType": "address",
          "name": "account",
          "type": "address"
        }
      ],
      "name": "transferAdmin",
      "outputs": [],
      "stateMutability": "nonpayable",
      "type": "function"
    },
    {
      "inputs": [
        {
          "internalType": "address",
          "name": "from",
          "type": "address"
        },
        {
          "internalType": "address",
          "name": "to",
          "type": "address"
        },
        {
          "internalType": "uint256",
          "name": "tokenId",
          "type": "uint256"
        }
      ],
      "name": "transferFrom",
      "outputs": [],
      "stateMutability": "nonpayable",
      "type": "function"
    }
  ],
  "transactionHash": "0x91dc09b400345efc6286bfbd1b800cb5cebabd5a7d6bce30d08ee20e4bab2715",
  "args": [
    " Disco District",
    "DISCO",
    "https://ipfs.io/ipfs/QmZexWfWGZWCmsbY2FUp8N8CvSZeYRu3ucJ74wWX18AZip/",
    {
      "name": "Disco District",
      "description": "Disco District is a collaborative proof-of-concept between Disco.xyz and District Labs. The limited edition Disco District NFTs introduce a novel approach to implementing smart contracts. Disco District NFTs can only be minted by the holders of an off-chain Official Disconaut credential which can be earned after onboarding onto Disco.xyz. Disco District shows how Ethereum app developers can build and deploy on-chain logic that can be gated the verification of off-chain reputation which represents a step forward for the ecosystem with respect to the concepts of identity, reputation, privacy and security. To learn more please checkout out a more extensive breakdown of this proof-of-concept here disco.districtlabs.com. And be sure to checkout Disco at disco.xyz and District Labs at districtlabs.com",
      "image": "ipfs://QmRZ86jmHScFm94hoED2FmB6SjqpuACgy6VYN5nTibxwSB",
      "externalLink": "https://disco.xyz",
      "sellerFeeBasisPoints": "0",
      "feeRecipient": "0x0000000000000000000000000000000000000000"
    },
    "0x2258A593F8C35C3634dE17Fd5E9320e00d699264",
    75
  ],
  "numDeployments": 1,
  "solcInputHash": "d06e085c042c002b65261e5da6ac7418",
  "bytecode": "0x608060405260006007553480156200001657600080fd5b50604051620028603803806200286083398101604081905262000039916200041d565b8585600062000049838262000580565b50600162000058828262000580565b505060078054915060006200006d836200064c565b909155506009905062000081858262000580565b5082518390600a90819062000097908262000580565b5060208201516001820190620000ae908262000580565b5060408201516002820190620000c5908262000580565b5060608201516003820190620000dc908262000580565b5060808201516004820190620000f3908262000580565b5060a082015160058201906200010a908262000580565b50505060088190556200011f6000836200012b565b50505050505062000674565b6200013782826200013b565b5050565b60008281526006602090815260408083206001600160a01b038516845290915290205460ff16620001375760008281526006602090815260408083206001600160a01b03851684529091529020805460ff191660011790556200019b3390565b6001600160a01b0316816001600160a01b0316837f2f8788117e7eff1d82e926ec794901d17c78024a50270940304540a733656f0d60405160405180910390a45050565b634e487b7160e01b600052604160045260246000fd5b60405160c081016001600160401b03811182821017156200021a576200021a620001df565b60405290565b604051601f8201601f191681016001600160401b03811182821017156200024b576200024b620001df565b604052919050565b600082601f8301126200026557600080fd5b81516001600160401b03811115620002815762000281620001df565b602062000297601f8301601f1916820162000220565b8281528582848701011115620002ac57600080fd5b60005b83811015620002cc578581018301518282018401528201620002af565b83811115620002de5760008385840101525b5095945050505050565b600060c08284031215620002fb57600080fd5b62000305620001f5565b82519091506001600160401b03808211156200032057600080fd5b6200032e8583860162000253565b835260208401519150808211156200034557600080fd5b620003538583860162000253565b602084015260408401519150808211156200036d57600080fd5b6200037b8583860162000253565b604084015260608401519150808211156200039557600080fd5b620003a38583860162000253565b60608401526080840151915080821115620003bd57600080fd5b620003cb8583860162000253565b608084015260a0840151915080821115620003e557600080fd5b50620003f48482850162000253565b60a08301525092915050565b80516001600160a01b03811681146200041857600080fd5b919050565b60008060008060008060c087890312156200043757600080fd5b86516001600160401b03808211156200044f57600080fd5b6200045d8a838b0162000253565b975060208901519150808211156200047457600080fd5b620004828a838b0162000253565b965060408901519150808211156200049957600080fd5b620004a78a838b0162000253565b95506060890151915080821115620004be57600080fd5b50620004cd89828a01620002e8565b935050620004de6080880162000400565b915060a087015190509295509295509295565b600181811c908216806200050657607f821691505b6020821081036200052757634e487b7160e01b600052602260045260246000fd5b50919050565b601f8211156200057b57600081815260208120601f850160051c81016020861015620005565750805b601f850160051c820191505b81811015620005775782815560010162000562565b5050505b505050565b81516001600160401b038111156200059c576200059c620001df565b620005b481620005ad8454620004f1565b846200052d565b602080601f831160018114620005ec5760008415620005d35750858301515b600019600386901b1c1916600185901b17855562000577565b600085815260208120601f198616915b828110156200061d57888601518255948401946001909101908401620005fc565b50858210156200063c5787850151600019600388901b60f8161c191681555b5050505050600190811b01905550565b6000600182016200066d57634e487b7160e01b600052601160045260246000fd5b5060010190565b6121dc80620006846000396000f3fe608060405234801561001057600080fd5b50600436106101cf5760003560e01c806370a0823111610104578063a217fddf116100a2578063c87b56dd11610071578063c87b56dd146103ec578063d547741f146103ff578063e8a3d48514610412578063e985e9c51461041a57600080fd5b8063a217fddf1461039e578063a22cb465146103a6578063b646a0e3146103b9578063b88d4fde146103d957600080fd5b8063879455c7116100de578063879455c71461035d57806391d148541461037057806395d89b4114610383578063994e75d11461038b57600080fd5b806370a082311461032257806372c328601461033557806375829def1461034a57600080fd5b80632f2ff15d1161017157806342966c681161014b57806342966c68146102d657806355f804b3146102e95780636352211e146102fc5780636a6278421461030f57600080fd5b80632f2ff15d1461029d57806336568abe146102b057806342842e0e146102c357600080fd5b8063095ea7b3116101ad578063095ea7b31461023c57806318160ddd1461025157806323b872dd14610267578063248a9ca31461027a57600080fd5b806301ffc9a7146101d457806306fdde03146101fc578063081812fc14610211575b600080fd5b6101e76101e23660046117ee565b610456565b60405190151581526020015b60405180910390f35b610204610467565b6040516101f39190611863565b61022461021f366004611876565b6104f9565b6040516001600160a01b0390911681526020016101f3565b61024f61024a3660046118ab565b610520565b005b61025961063a565b6040519081526020016101f3565b61024f6102753660046118d5565b610650565b610259610288366004611876565b60009081526006602052604090206001015490565b61024f6102ab366004611911565b610681565b61024f6102be366004611911565b6106a6565b61024f6102d13660046118d5565b610724565b61024f6102e4366004611876565b61073f565b61024f6102f73660046119c9565b61077f565b61022461030a366004611876565b6107b2565b61024f61031d366004611a12565b610812565b610259610330366004611a12565b610886565b61025960008051602061218783398151915281565b61024f610358366004611a12565b61090c565b61024f61036b366004611a12565b610922565b6101e761037e366004611911565b610961565b61020461098c565b61024f610399366004611a12565b61099b565b610259600081565b61024f6103b4366004611a2d565b6109da565b6102596103c7366004611876565b60116020526000908152604090205481565b61024f6103e7366004611a69565b6109e5565b6102046103fa366004611876565b610a1d565b61024f61040d366004611911565b610aa5565b610204610aca565b6101e7610428366004611ae5565b6001600160a01b03918216600090815260056020908152604080832093909416825291909152205460ff1690565b600061046182610b2a565b92915050565b60606000805461047690611b0f565b80601f01602080910402602001604051908101604052809291908181526020018280546104a290611b0f565b80156104ef5780601f106104c4576101008083540402835291602001916104ef565b820191906000526020600020905b8154815290600101906020018083116104d257829003601f168201915b5050505050905090565b600061050482610b4f565b506000908152600460205260409020546001600160a01b031690565b600061052b826107b2565b9050806001600160a01b0316836001600160a01b03160361059d5760405162461bcd60e51b815260206004820152602160248201527f4552433732313a20617070726f76616c20746f2063757272656e74206f776e656044820152603960f91b60648201526084015b60405180910390fd5b336001600160a01b03821614806105b957506105b98133610428565b61062b5760405162461bcd60e51b815260206004820152603e60248201527f4552433732313a20617070726f76652063616c6c6572206973206e6f7420746f60448201527f6b656e206f776e6572206e6f7220617070726f76656420666f7220616c6c00006064820152608401610594565b6106358383610bae565b505050565b6000600160075461064b9190611b5f565b905090565b61065a3382610c1c565b6106765760405162461bcd60e51b815260040161059490611b76565b610635838383610c9a565b60008281526006602052604090206001015461069c81610e36565b6106358383610e40565b6001600160a01b03811633146107165760405162461bcd60e51b815260206004820152602f60248201527f416363657373436f6e74726f6c3a2063616e206f6e6c792072656e6f756e636560448201526e103937b632b9903337b91039b2b63360891b6064820152608401610594565b6107208282610ec6565b5050565b610635838383604051806020016040528060008152506109e5565b61075760008051602061218783398151915233610961565b6107735760405162461bcd60e51b815260040161059490611bc4565b61077c81610f2d565b50565b61078a600033610961565b6107a65760405162461bcd60e51b815260040161059490611bc4565b60096107208282611c49565b6000818152600260205260408120546001600160a01b0316806104615760405162461bcd60e51b8152602060048201526018602482015277115490cdcc8c4e881a5b9d985b1a59081d1bdad95b88125160421b6044820152606401610594565b61082a60008051602061218783398151915233610961565b6108465760405162461bcd60e51b815260040161059490611bc4565b60078054600181019091556001600160a01b0382166000908152601060209081526040808320849055838352601190915290204290556107208282610fc8565b60006001600160a01b0382166108f05760405162461bcd60e51b815260206004820152602960248201527f4552433732313a2061646472657373207a65726f206973206e6f7420612076616044820152683634b21037bbb732b960b91b6064820152608401610594565b506001600160a01b031660009081526003602052604090205490565b610917600082610681565b61077c6000336106a6565b61092d600033610961565b6109495760405162461bcd60e51b815260040161059490611bc4565b61077c60008051602061218783398151915282610681565b60009182526006602090815260408084206001600160a01b0393909316845291905290205460ff1690565b60606001805461047690611b0f565b6109a6600033610961565b6109c25760405162461bcd60e51b815260040161059490611bc4565b61077c60008051602061218783398151915282610aa5565b61072033838361110a565b6109ef3383610c1c565b610a0b5760405162461bcd60e51b815260040161059490611b76565b610a17848484846111d8565b50505050565b600854600082815260116020526040812054606092610a3b91611d1f565b610a46906001611d33565b90506000610a5261120b565b90506000815111610a725760405180602001604052806000815250610a9d565b80610a7c8361121a565b604051602001610a8d929190611d4b565b6040516020818303038152906040525b949350505050565b600082815260066020526040902060010154610ac081610e36565b6106358383610ec6565b604051606090610b0690610af290600a90600b90600c90600d90600e90600f90602001611dfd565b60405160208183030381529060405261131b565b604051602001610b169190611f67565b604051602081830303815290604052905090565b60006001600160e01b03198216637965db0b60e01b1480610461575061046182611480565b6000818152600260205260409020546001600160a01b031661077c5760405162461bcd60e51b8152602060048201526018602482015277115490cdcc8c4e881a5b9d985b1a59081d1bdad95b88125160421b6044820152606401610594565b600081815260046020526040902080546001600160a01b0319166001600160a01b0384169081179091558190610be3826107b2565b6001600160a01b03167f8c5be1e5ebec7d5bd14f71427d1e84f3dd0314c0f7b2291e5b200ac8c7c3b92560405160405180910390a45050565b600080610c28836107b2565b9050806001600160a01b0316846001600160a01b03161480610c6f57506001600160a01b0380821660009081526005602090815260408083209388168352929052205460ff165b80610a9d5750836001600160a01b0316610c88846104f9565b6001600160a01b031614949350505050565b826001600160a01b0316610cad826107b2565b6001600160a01b031614610d115760405162461bcd60e51b815260206004820152602560248201527f4552433732313a207472616e736665722066726f6d20696e636f72726563742060448201526437bbb732b960d91b6064820152608401610594565b6001600160a01b038216610d735760405162461bcd60e51b8152602060048201526024808201527f4552433732313a207472616e7366657220746f20746865207a65726f206164646044820152637265737360e01b6064820152608401610594565b610d7e600082610bae565b6001600160a01b0383166000908152600360205260408120805460019290610da7908490611b5f565b90915550506001600160a01b0382166000908152600360205260408120805460019290610dd5908490611d33565b909155505060008181526002602052604080822080546001600160a01b0319166001600160a01b0386811691821790925591518493918716917fddf252ad1be2c89b69c2b068fc378daa952ba7f163c4a11628f55a4df523b3ef91a4505050565b61077c81336114d0565b610e4a8282610961565b6107205760008281526006602090815260408083206001600160a01b03851684529091529020805460ff19166001179055610e823390565b6001600160a01b0316816001600160a01b0316837f2f8788117e7eff1d82e926ec794901d17c78024a50270940304540a733656f0d60405160405180910390a45050565b610ed08282610961565b156107205760008281526006602090815260408083206001600160a01b0385168085529252808320805460ff1916905551339285917ff6391f5c32d9c69d2a47ea670b442974b53935d1edc7fd64eb21e047a839171b9190a45050565b6000610f38826107b2565b9050610f45600083610bae565b6001600160a01b0381166000908152600360205260408120805460019290610f6e908490611b5f565b909155505060008281526002602052604080822080546001600160a01b0319169055518391906001600160a01b038416907fddf252ad1be2c89b69c2b068fc378daa952ba7f163c4a11628f55a4df523b3ef908390a45050565b6001600160a01b03821661101e5760405162461bcd60e51b815260206004820181905260248201527f4552433732313a206d696e7420746f20746865207a65726f20616464726573736044820152606401610594565b6000818152600260205260409020546001600160a01b0316156110835760405162461bcd60e51b815260206004820152601c60248201527f4552433732313a20746f6b656e20616c7265616479206d696e746564000000006044820152606401610594565b6001600160a01b03821660009081526003602052604081208054600192906110ac908490611d33565b909155505060008181526002602052604080822080546001600160a01b0319166001600160a01b03861690811790915590518392907fddf252ad1be2c89b69c2b068fc378daa952ba7f163c4a11628f55a4df523b3ef908290a45050565b816001600160a01b0316836001600160a01b03160361116b5760405162461bcd60e51b815260206004820152601960248201527f4552433732313a20617070726f766520746f2063616c6c6572000000000000006044820152606401610594565b6001600160a01b03838116600081815260056020908152604080832094871680845294825291829020805460ff191686151590811790915591519182527f17307eab39ab6107e8899845ad3d59bd9653f200f220920489ca2b5937696c31910160405180910390a3505050565b6111e3848484610c9a565b6111ef84848484611534565b610a175760405162461bcd60e51b815260040161059490611fac565b60606009805461047690611b0f565b6060816000036112415750506040805180820190915260018152600360fc1b602082015290565b8160005b811561126b578061125581611ffe565b91506112649050600a83612017565b9150611245565b60008167ffffffffffffffff8111156112865761128661193d565b6040519080825280601f01601f1916602001820160405280156112b0576020820181803683370190505b5090505b8415610a9d576112c5600183611b5f565b91506112d2600a86611d1f565b6112dd906030611d33565b60f81b8183815181106112f2576112f261202b565b60200101906001600160f81b031916908160001a905350611314600a86612017565b94506112b4565b6060815160000361133a57505060408051602081019091526000815290565b600060405180606001604052806040815260200161214760409139905060006003845160026113699190611d33565b6113739190612017565b61137e906004612041565b9050600061138d826020611d33565b67ffffffffffffffff8111156113a5576113a561193d565b6040519080825280601f01601f1916602001820160405280156113cf576020820181803683370190505b509050818152600183018586518101602084015b8183101561143b576003830192508251603f8160121c168501518253600182019150603f81600c1c168501518253600182019150603f8160061c168501518253600182019150603f81168501518253506001016113e3565b600389510660018114611455576002811461146657611472565b613d3d60f01b600119830152611472565b603d60f81b6000198301525b509398975050505050505050565b60006001600160e01b031982166380ac58cd60e01b14806114b157506001600160e01b03198216635b5e139f60e01b145b8061046157506301ffc9a760e01b6001600160e01b0319831614610461565b6114da8282610961565b610720576114f2816001600160a01b03166014611635565b6114fd836020611635565b60405160200161150e929190612060565b60408051601f198184030181529082905262461bcd60e51b825261059491600401611863565b60006001600160a01b0384163b1561162a57604051630a85bd0160e11b81526001600160a01b0385169063150b7a02906115789033908990889088906004016120d5565b6020604051808303816000875af19250505080156115b3575060408051601f3d908101601f191682019092526115b091810190612112565b60015b611610573d8080156115e1576040519150601f19603f3d011682016040523d82523d6000602084013e6115e6565b606091505b5080516000036116085760405162461bcd60e51b815260040161059490611fac565b805181602001fd5b6001600160e01b031916630a85bd0160e11b149050610a9d565b506001949350505050565b60606000611644836002612041565b61164f906002611d33565b67ffffffffffffffff8111156116675761166761193d565b6040519080825280601f01601f191660200182016040528015611691576020820181803683370190505b509050600360fc1b816000815181106116ac576116ac61202b565b60200101906001600160f81b031916908160001a905350600f60fb1b816001815181106116db576116db61202b565b60200101906001600160f81b031916908160001a90535060006116ff846002612041565b61170a906001611d33565b90505b6001811115611782576f181899199a1a9b1b9c1cb0b131b232b360811b85600f166010811061173e5761173e61202b565b1a60f81b8282815181106117545761175461202b565b60200101906001600160f81b031916908160001a90535060049490941c9361177b8161212f565b905061170d565b5083156117d15760405162461bcd60e51b815260206004820181905260248201527f537472696e67733a20686578206c656e67746820696e73756666696369656e746044820152606401610594565b9392505050565b6001600160e01b03198116811461077c57600080fd5b60006020828403121561180057600080fd5b81356117d1816117d8565b60005b8381101561182657818101518382015260200161180e565b83811115610a175750506000910152565b6000815180845261184f81602086016020860161180b565b601f01601f19169290920160200192915050565b6020815260006117d16020830184611837565b60006020828403121561188857600080fd5b5035919050565b80356001600160a01b03811681146118a657600080fd5b919050565b600080604083850312156118be57600080fd5b6118c78361188f565b946020939093013593505050565b6000806000606084860312156118ea57600080fd5b6118f38461188f565b92506119016020850161188f565b9150604084013590509250925092565b6000806040838503121561192457600080fd5b823591506119346020840161188f565b90509250929050565b634e487b7160e01b600052604160045260246000fd5b600067ffffffffffffffff8084111561196e5761196e61193d565b604051601f8501601f19908116603f011681019082821181831017156119965761199661193d565b816040528093508581528686860111156119af57600080fd5b858560208301376000602087830101525050509392505050565b6000602082840312156119db57600080fd5b813567ffffffffffffffff8111156119f257600080fd5b8201601f81018413611a0357600080fd5b610a9d84823560208401611953565b600060208284031215611a2457600080fd5b6117d18261188f565b60008060408385031215611a4057600080fd5b611a498361188f565b915060208301358015158114611a5e57600080fd5b809150509250929050565b60008060008060808587031215611a7f57600080fd5b611a888561188f565b9350611a966020860161188f565b925060408501359150606085013567ffffffffffffffff811115611ab957600080fd5b8501601f81018713611aca57600080fd5b611ad987823560208401611953565b91505092959194509250565b60008060408385031215611af857600080fd5b611b018361188f565b91506119346020840161188f565b600181811c90821680611b2357607f821691505b602082108103611b4357634e487b7160e01b600052602260045260246000fd5b50919050565b634e487b7160e01b600052601160045260246000fd5b600082821015611b7157611b71611b49565b500390565b6020808252602e908201527f4552433732313a2063616c6c6572206973206e6f7420746f6b656e206f776e6560408201526d1c881b9bdc88185c1c1c9bdd995960921b606082015260800190565b60208082526018908201527f446973636f4552433732313a756e617574686f72697a65640000000000000000604082015260600190565b601f82111561063557600081815260208120601f850160051c81016020861015611c225750805b601f850160051c820191505b81811015611c4157828155600101611c2e565b505050505050565b815167ffffffffffffffff811115611c6357611c6361193d565b611c7781611c718454611b0f565b84611bfb565b602080601f831160018114611cac5760008415611c945750858301515b600019600386901b1c1916600185901b178555611c41565b600085815260208120601f198616915b82811015611cdb57888601518255948401946001909101908401611cbc565b5085821015611cf95787850151600019600388901b60f8161c191681555b5050505050600190811b01905550565b634e487b7160e01b600052601260045260246000fd5b600082611d2e57611d2e611d09565b500690565b60008219821115611d4657611d46611b49565b500190565b60008351611d5d81846020880161180b565b835190830190611d7181836020880161180b565b64173539b7b760d91b9101908152600501949350505050565b60008154611d9781611b0f565b60018281168015611daf5760018114611dc457611df3565b60ff1984168752821515830287019450611df3565b8560005260208060002060005b85811015611dea5781548a820152908401908201611dd1565b50505082870194505b5050505092915050565b673d913730b6b2911d60c11b8152601160f91b60088201526000611e246009830189611d8a565b61088b60f21b81526002611e4a8183016d113232b9b1b934b83a34b7b7111d60911b9052565b601160f91b6010830152611e61601183018a611d8a565b61088b60f21b81529150671134b6b0b3b2911d60c11b82820152601160f91b600a830152611e92600b830189611d8a565b61088b60f21b815291506e1132bc3a32b93730b62634b735911d60891b82820152601160f91b6011830152611eca6012830188611d8a565b61088b60f21b815291507f2273656c6c65724665654261736973506f696e7473223a00000000000000000082820152601160f91b6019830152611f10601a830187611d8a565b61088b60f21b815291506e113332b2a932b1b4b834b2b73a111d60891b82820152601160f91b6011830152611f486012830186611d8a565b601160f91b8152607d60f81b6001820152019998505050505050505050565b7f646174613a6170706c69636174696f6e2f6a736f6e3b6261736536342c000000815260008251611f9f81601d85016020870161180b565b91909101601d0192915050565b60208082526032908201527f4552433732313a207472616e7366657220746f206e6f6e20455243373231526560408201527131b2b4bb32b91034b6b83632b6b2b73a32b960711b606082015260800190565b60006001820161201057612010611b49565b5060010190565b60008261202657612026611d09565b500490565b634e487b7160e01b600052603260045260246000fd5b600081600019048311821515161561205b5761205b611b49565b500290565b7f416363657373436f6e74726f6c3a206163636f756e742000000000000000000081526000835161209881601785016020880161180b565b7001034b99036b4b9b9b4b733903937b6329607d1b60179184019182015283516120c981602884016020880161180b565b01602801949350505050565b6001600160a01b038581168252841660208201526040810183905260806060820181905260009061210890830184611837565b9695505050505050565b60006020828403121561212457600080fd5b81516117d1816117d8565b60008161213e5761213e611b49565b50600019019056fe4142434445464748494a4b4c4d4e4f505152535455565758595a6162636465666768696a6b6c6d6e6f707172737475767778797a303132333435363738392b2fcfd53186d792f1ec9d0679afc2dc3ffc86fc31fe1e0f342b838eb6c3eade62b3a2646970667358221220b947d02502bc80836aa1e3fe012aa082e6c1d9033505190381cf85ecd4c0ba2564736f6c634300080f0033",
  "devdoc": {
    "kind": "dev",
    "methods": {
      "approve(address,uint256)": {
        "details": "See {IERC721-approve}."
      },
      "balanceOf(address)": {
        "details": "See {IERC721-balanceOf}."
      },
      "burn(uint256)": {
        "params": {
          "tokenId": "uint256 - Token ID to burn"
        }
      },
      "getApproved(uint256)": {
        "details": "See {IERC721-getApproved}."
      },
      "getRoleAdmin(bytes32)": {
        "details": "Returns the admin role that controls `role`. See {grantRole} and {revokeRole}. To change a role's admin, use {_setRoleAdmin}."
      },
      "grantMinterBurnerRole(address)": {
        "params": {
          "_minterBurner": "address - Address to grant the role to"
        }
      },
      "grantRole(bytes32,address)": {
        "details": "Grants `role` to `account`. If `account` had not been already granted `role`, emits a {RoleGranted} event. Requirements: - the caller must have ``role``'s admin role. May emit a {RoleGranted} event."
      },
      "hasRole(bytes32,address)": {
        "details": "Returns `true` if `account` has been granted `role`."
      },
      "isApprovedForAll(address,address)": {
        "details": "See {IERC721-isApprovedForAll}."
      },
      "mint(address)": {
        "params": {
          "to": "address - Address to mint to`"
        }
      },
      "name()": {
        "details": "See {IERC721Metadata-name}."
      },
      "ownerOf(uint256)": {
        "details": "See {IERC721-ownerOf}."
      },
      "renounceRole(bytes32,address)": {
        "details": "Revokes `role` from the calling account. Roles are often managed via {grantRole} and {revokeRole}: this function's purpose is to provide a mechanism for accounts to lose their privileges if they are compromised (such as when a trusted device is misplaced). If the calling account had been revoked `role`, emits a {RoleRevoked} event. Requirements: - the caller must be `account`. May emit a {RoleRevoked} event."
      },
      "revokeMinterBurner(address)": {
        "params": {
          "_minterBurner": "address - Address to revoke the role from"
        }
      },
      "revokeRole(bytes32,address)": {
        "details": "Revokes `role` from `account`. If `account` had been granted `role`, emits a {RoleRevoked} event. Requirements: - the caller must have ``role``'s admin role. May emit a {RoleRevoked} event."
      },
      "safeTransferFrom(address,address,uint256)": {
        "details": "See {IERC721-safeTransferFrom}."
      },
      "safeTransferFrom(address,address,uint256,bytes)": {
        "details": "See {IERC721-safeTransferFrom}."
      },
      "setApprovalForAll(address,bool)": {
        "details": "See {IERC721-setApprovalForAll}."
      },
      "symbol()": {
        "details": "See {IERC721Metadata-symbol}."
      },
      "transferFrom(address,address,uint256)": {
        "details": "See {IERC721-transferFrom}."
      }
    },
    "version": 1
  },
  "userdoc": {
    "kind": "user",
    "methods": {
      "_tokenIdToTimestamp(uint256)": {
        "notice": "Map to track tokenId to block timestamp when minted"
      },
      "burn(uint256)": {
        "notice": "Burns a token"
      },
      "grantMinterBurnerRole(address)": {
        "notice": "Grants the MINTER_BURNER_ROLE to the given address"
      },
      "mint(address)": {
        "notice": "Mints a new token to the given address"
      },
      "revokeMinterBurner(address)": {
        "notice": "Revokes the MINTER_BURNER_ROLE from the given address"
      },
      "tokenURI(uint256)": {
        "notice": "Override: returns the the tokens uri metadata based on the timestamp minted"
      }
    },
    "version": 1
  },
  "storageLayout": {
    "storage": [
      {
        "astId": 1220,
        "contract": "contracts/DiscoERC721.sol:DiscoERC721",
        "label": "_name",
        "offset": 0,
        "slot": "0",
        "type": "t_string_storage"
      },
      {
        "astId": 1222,
        "contract": "contracts/DiscoERC721.sol:DiscoERC721",
        "label": "_symbol",
        "offset": 0,
        "slot": "1",
        "type": "t_string_storage"
      },
      {
        "astId": 1226,
        "contract": "contracts/DiscoERC721.sol:DiscoERC721",
        "label": "_owners",
        "offset": 0,
        "slot": "2",
        "type": "t_mapping(t_uint256,t_address)"
      },
      {
        "astId": 1230,
        "contract": "contracts/DiscoERC721.sol:DiscoERC721",
        "label": "_balances",
        "offset": 0,
        "slot": "3",
        "type": "t_mapping(t_address,t_uint256)"
      },
      {
        "astId": 1234,
        "contract": "contracts/DiscoERC721.sol:DiscoERC721",
        "label": "_tokenApprovals",
        "offset": 0,
        "slot": "4",
        "type": "t_mapping(t_uint256,t_address)"
      },
      {
        "astId": 1240,
        "contract": "contracts/DiscoERC721.sol:DiscoERC721",
        "label": "_operatorApprovals",
        "offset": 0,
        "slot": "5",
        "type": "t_mapping(t_address,t_mapping(t_address,t_bool))"
      },
      {
        "astId": 24,
        "contract": "contracts/DiscoERC721.sol:DiscoERC721",
        "label": "_roles",
        "offset": 0,
        "slot": "6",
        "type": "t_mapping(t_bytes32,t_struct(RoleData)19_storage)"
      },
      {
        "astId": 8357,
        "contract": "contracts/DiscoERC721.sol:DiscoERC721",
        "label": "_idCounter",
        "offset": 0,
        "slot": "7",
        "type": "t_uint256"
      },
      {
        "astId": 8359,
        "contract": "contracts/DiscoERC721.sol:DiscoERC721",
        "label": "_numberOfImages",
        "offset": 0,
        "slot": "8",
        "type": "t_uint256"
      },
      {
        "astId": 8361,
        "contract": "contracts/DiscoERC721.sol:DiscoERC721",
        "label": "_baseTokenURI",
        "offset": 0,
        "slot": "9",
        "type": "t_string_storage"
      },
      {
        "astId": 8364,
        "contract": "contracts/DiscoERC721.sol:DiscoERC721",
        "label": "_contractURI",
        "offset": 0,
        "slot": "10",
        "type": "t_struct(ContractURI)8377_storage"
      },
      {
        "astId": 8381,
        "contract": "contracts/DiscoERC721.sol:DiscoERC721",
        "label": "_tokenOwner",
        "offset": 0,
        "slot": "16",
        "type": "t_mapping(t_address,t_uint256)"
      },
      {
        "astId": 8386,
        "contract": "contracts/DiscoERC721.sol:DiscoERC721",
        "label": "_tokenIdToTimestamp",
        "offset": 0,
        "slot": "17",
        "type": "t_mapping(t_uint256,t_uint256)"
      }
    ],
    "types": {
      "t_address": {
        "encoding": "inplace",
        "label": "address",
        "numberOfBytes": "20"
      },
      "t_bool": {
        "encoding": "inplace",
        "label": "bool",
        "numberOfBytes": "1"
      },
      "t_bytes32": {
        "encoding": "inplace",
        "label": "bytes32",
        "numberOfBytes": "32"
      },
      "t_mapping(t_address,t_bool)": {
        "encoding": "mapping",
        "key": "t_address",
        "label": "mapping(address => bool)",
        "numberOfBytes": "32",
        "value": "t_bool"
      },
      "t_mapping(t_address,t_mapping(t_address,t_bool))": {
        "encoding": "mapping",
        "key": "t_address",
        "label": "mapping(address => mapping(address => bool))",
        "numberOfBytes": "32",
        "value": "t_mapping(t_address,t_bool)"
      },
      "t_mapping(t_address,t_uint256)": {
        "encoding": "mapping",
        "key": "t_address",
        "label": "mapping(address => uint256)",
        "numberOfBytes": "32",
        "value": "t_uint256"
      },
      "t_mapping(t_bytes32,t_struct(RoleData)19_storage)": {
        "encoding": "mapping",
        "key": "t_bytes32",
        "label": "mapping(bytes32 => struct AccessControl.RoleData)",
        "numberOfBytes": "32",
        "value": "t_struct(RoleData)19_storage"
      },
      "t_mapping(t_uint256,t_address)": {
        "encoding": "mapping",
        "key": "t_uint256",
        "label": "mapping(uint256 => address)",
        "numberOfBytes": "32",
        "value": "t_address"
      },
      "t_mapping(t_uint256,t_uint256)": {
        "encoding": "mapping",
        "key": "t_uint256",
        "label": "mapping(uint256 => uint256)",
        "numberOfBytes": "32",
        "value": "t_uint256"
      },
      "t_string_storage": {
        "encoding": "bytes",
        "label": "string",
        "numberOfBytes": "32"
      },
      "t_struct(ContractURI)8377_storage": {
        "encoding": "inplace",
        "label": "struct DiscoERC721.ContractURI",
        "members": [
          {
            "astId": 8366,
            "contract": "contracts/DiscoERC721.sol:DiscoERC721",
            "label": "name",
            "offset": 0,
            "slot": "0",
            "type": "t_string_storage"
          },
          {
            "astId": 8368,
            "contract": "contracts/DiscoERC721.sol:DiscoERC721",
            "label": "description",
            "offset": 0,
            "slot": "1",
            "type": "t_string_storage"
          },
          {
            "astId": 8370,
            "contract": "contracts/DiscoERC721.sol:DiscoERC721",
            "label": "image",
            "offset": 0,
            "slot": "2",
            "type": "t_string_storage"
          },
          {
            "astId": 8372,
            "contract": "contracts/DiscoERC721.sol:DiscoERC721",
            "label": "externalLink",
            "offset": 0,
            "slot": "3",
            "type": "t_string_storage"
          },
          {
            "astId": 8374,
            "contract": "contracts/DiscoERC721.sol:DiscoERC721",
            "label": "sellerFeeBasisPoints",
            "offset": 0,
            "slot": "4",
            "type": "t_string_storage"
          },
          {
            "astId": 8376,
            "contract": "contracts/DiscoERC721.sol:DiscoERC721",
            "label": "feeRecipient",
            "offset": 0,
            "slot": "5",
            "type": "t_string_storage"
          }
        ],
        "numberOfBytes": "192"
      },
      "t_struct(RoleData)19_storage": {
        "encoding": "inplace",
        "label": "struct AccessControl.RoleData",
        "members": [
          {
            "astId": 16,
            "contract": "contracts/DiscoERC721.sol:DiscoERC721",
            "label": "members",
            "offset": 0,
            "slot": "0",
            "type": "t_mapping(t_address,t_bool)"
          },
          {
            "astId": 18,
            "contract": "contracts/DiscoERC721.sol:DiscoERC721",
            "label": "adminRole",
            "offset": 0,
            "slot": "1",
            "type": "t_bytes32"
          }
        ],
        "numberOfBytes": "64"
      },
      "t_uint256": {
        "encoding": "inplace",
        "label": "uint256",
        "numberOfBytes": "32"
      }
    }
  }
}