{
  "address": "0xff17832Fd6E7C6031083173801d69E3aF0De975a",
  "abi": [
    {
      "inputs": [
        {
          "internalType": "string",
          "name": "name",
          "type": "string"
        },
        {
          "internalType": "string",
          "name": "symbol",
          "type": "string"
        },
        {
          "internalType": "string",
          "name": "_baseTokenURI_",
          "type": "string"
        },
        {
          "components": [
            {
              "internalType": "string",
              "name": "name",
              "type": "string"
            },
            {
              "internalType": "string",
              "name": "description",
              "type": "string"
            },
            {
              "internalType": "string",
              "name": "image",
              "type": "string"
            },
            {
              "internalType": "string",
              "name": "externalLink",
              "type": "string"
            },
            {
              "internalType": "string",
              "name": "sellerFeeBasisPoints",
              "type": "string"
            },
            {
              "internalType": "string",
              "name": "feeRecipient",
              "type": "string"
            }
          ],
          "internalType": "struct DiscoERC721.ContractURI",
          "name": "_contractURI_",
          "type": "tuple"
        },
        {
          "internalType": "address",
          "name": "admin",
          "type": "address"
        },
        {
          "internalType": "uint256",
          "name": "_numberOfImages_",
          "type": "uint256"
        }
      ],
      "stateMutability": "nonpayable",
      "type": "constructor"
    },
    {
      "anonymous": false,
      "inputs": [
        {
          "indexed": true,
          "internalType": "address",
          "name": "owner",
          "type": "address"
        },
        {
          "indexed": true,
          "internalType": "address",
          "name": "approved",
          "type": "address"
        },
        {
          "indexed": true,
          "internalType": "uint256",
          "name": "tokenId",
          "type": "uint256"
        }
      ],
      "name": "Approval",
      "type": "event"
    },
    {
      "anonymous": false,
      "inputs": [
        {
          "indexed": true,
          "internalType": "address",
          "name": "owner",
          "type": "address"
        },
        {
          "indexed": true,
          "internalType": "address",
          "name": "operator",
          "type": "address"
        },
        {
          "indexed": false,
          "internalType": "bool",
          "name": "approved",
          "type": "bool"
        }
      ],
      "name": "ApprovalForAll",
      "type": "event"
    },
    {
      "anonymous": false,
      "inputs": [
        {
          "indexed": true,
          "internalType": "bytes32",
          "name": "role",
          "type": "bytes32"
        },
        {
          "indexed": true,
          "internalType": "bytes32",
          "name": "previousAdminRole",
          "type": "bytes32"
        },
        {
          "indexed": true,
          "internalType": "bytes32",
          "name": "newAdminRole",
          "type": "bytes32"
        }
      ],
      "name": "RoleAdminChanged",
      "type": "event"
    },
    {
      "anonymous": false,
      "inputs": [
        {
          "indexed": true,
          "internalType": "bytes32",
          "name": "role",
          "type": "bytes32"
        },
        {
          "indexed": true,
          "internalType": "address",
          "name": "account",
          "type": "address"
        },
        {
          "indexed": true,
          "internalType": "address",
          "name": "sender",
          "type": "address"
        }
      ],
      "name": "RoleGranted",
      "type": "event"
    },
    {
      "anonymous": false,
      "inputs": [
        {
          "indexed": true,
          "internalType": "bytes32",
          "name": "role",
          "type": "bytes32"
        },
        {
          "indexed": true,
          "internalType": "address",
          "name": "account",
          "type": "address"
        },
        {
          "indexed": true,
          "internalType": "address",
          "name": "sender",
          "type": "address"
        }
      ],
      "name": "RoleRevoked",
      "type": "event"
    },
    {
      "anonymous": false,
      "inputs": [
        {
          "indexed": true,
          "internalType": "address",
          "name": "from",
          "type": "address"
        },
        {
          "indexed": true,
          "internalType": "address",
          "name": "to",
          "type": "address"
        },
        {
          "indexed": true,
          "internalType": "uint256",
          "name": "tokenId",
          "type": "uint256"
        }
      ],
      "name": "Transfer",
      "type": "event"
    },
    {
      "inputs": [],
      "name": "DEFAULT_ADMIN_ROLE",
      "outputs": [
        {
          "internalType": "bytes32",
          "name": "",
          "type": "bytes32"
        }
      ],
      "stateMutability": "view",
      "type": "function"
    },
    {
      "inputs": [],
      "name": "MINTER_BURNER_ROLE",
      "outputs": [
        {
          "internalType": "bytes32",
          "name": "",
          "type": "bytes32"
        }
      ],
      "stateMutability": "view",
      "type": "function"
    },
    {
      "inputs": [
        {
          "internalType": "uint256",
          "name": "",
          "type": "uint256"
        }
      ],
      "name": "_tokenIdToTimestamp",
      "outputs": [
        {
          "internalType": "uint256",
          "name": "",
          "type": "uint256"
        }
      ],
      "stateMutability": "view",
      "type": "function"
    },
    {
      "inputs": [
        {
          "internalType": "address",
          "name": "to",
          "type": "address"
        },
        {
          "internalType": "uint256",
          "name": "tokenId",
          "type": "uint256"
        }
      ],
      "name": "approve",
      "outputs": [],
      "stateMutability": "nonpayable",
      "type": "function"
    },
    {
      "inputs": [
        {
          "internalType": "address",
          "name": "owner",
          "type": "address"
        }
      ],
      "name": "balanceOf",
      "outputs": [
        {
          "internalType": "uint256",
          "name": "",
          "type": "uint256"
        }
      ],
      "stateMutability": "view",
      "type": "function"
    },
    {
      "inputs": [
        {
          "internalType": "uint256",
          "name": "tokenId",
          "type": "uint256"
        }
      ],
      "name": "burn",
      "outputs": [],
      "stateMutability": "nonpayable",
      "type": "function"
    },
    {
      "inputs": [],
      "name": "contractURI",
      "outputs": [
        {
          "internalType": "string",
          "name": "uri",
          "type": "string"
        }
      ],
      "stateMutability": "view",
      "type": "function"
    },
    {
      "inputs": [
        {
          "internalType": "uint256",
          "name": "tokenId",
          "type": "uint256"
        }
      ],
      "name": "getApproved",
      "outputs": [
        {
          "internalType": "address",
          "name": "",
          "type": "address"
        }
      ],
      "stateMutability": "view",
      "type": "function"
    },
    {
      "inputs": [
        {
          "internalType": "bytes32",
          "name": "role",
          "type": "bytes32"
        }
      ],
      "name": "getRoleAdmin",
      "outputs": [
        {
          "internalType": "bytes32",
          "name": "",
          "type": "bytes32"
        }
      ],
      "stateMutability": "view",
      "type": "function"
    },
    {
      "inputs": [
        {
          "internalType": "address",
          "name": "_minterBurner",
          "type": "address"
        }
      ],
      "name": "grantMinterBurnerRole",
      "outputs": [],
      "stateMutability": "nonpayable",
      "type": "function"
    },
    {
      "inputs": [
        {
          "internalType": "bytes32",
          "name": "role",
          "type": "bytes32"
        },
        {
          "internalType": "address",
          "name": "account",
          "type": "address"
        }
      ],
      "name": "grantRole",
      "outputs": [],
      "stateMutability": "nonpayable",
      "type": "function"
    },
    {
      "inputs": [
        {
          "internalType": "bytes32",
          "name": "role",
          "type": "bytes32"
        },
        {
          "internalType": "address",
          "name": "account",
          "type": "address"
        }
      ],
      "name": "hasRole",
      "outputs": [
        {
          "internalType": "bool",
          "name": "",
          "type": "bool"
        }
      ],
      "stateMutability": "view",
      "type": "function"
    },
    {
      "inputs": [
        {
          "internalType": "address",
          "name": "owner",
          "type": "address"
        },
        {
          "internalType": "address",
          "name": "operator",
          "type": "address"
        }
      ],
      "name": "isApprovedForAll",
      "outputs": [
        {
          "internalType": "bool",
          "name": "",
          "type": "bool"
        }
      ],
      "stateMutability": "view",
      "type": "function"
    },
    {
      "inputs": [
        {
          "internalType": "address",
          "name": "to",
          "type": "address"
        }
      ],
      "name": "mint",
      "outputs": [],
      "stateMutability": "nonpayable",
      "type": "function"
    },
    {
      "inputs": [],
      "name": "name",
      "outputs": [
        {
          "internalType": "string",
          "name": "",
          "type": "string"
        }
      ],
      "stateMutability": "view",
      "type": "function"
    },
    {
      "inputs": [
        {
          "internalType": "uint256",
          "name": "tokenId",
          "type": "uint256"
        }
      ],
      "name": "ownerOf",
      "outputs": [
        {
          "internalType": "address",
          "name": "",
          "type": "address"
        }
      ],
      "stateMutability": "view",
      "type": "function"
    },
    {
      "inputs": [
        {
          "internalType": "bytes32",
          "name": "role",
          "type": "bytes32"
        },
        {
          "internalType": "address",
          "name": "account",
          "type": "address"
        }
      ],
      "name": "renounceRole",
      "outputs": [],
      "stateMutability": "nonpayable",
      "type": "function"
    },
    {
      "inputs": [
        {
          "internalType": "address",
          "name": "_minterBurner",
          "type": "address"
        }
      ],
      "name": "revokeMinterBurner",
      "outputs": [],
      "stateMutability": "nonpayable",
      "type": "function"
    },
    {
      "inputs": [
        {
          "internalType": "bytes32",
          "name": "role",
          "type": "bytes32"
        },
        {
          "internalType": "address",
          "name": "account",
          "type": "address"
        }
      ],
      "name": "revokeRole",
      "outputs": [],
      "stateMutability": "nonpayable",
      "type": "function"
    },
    {
      "inputs": [
        {
          "internalType": "address",
          "name": "from",
          "type": "address"
        },
        {
          "internalType": "address",
          "name": "to",
          "type": "address"
        },
        {
          "internalType": "uint256",
          "name": "tokenId",
          "type": "uint256"
        }
      ],
      "name": "safeTransferFrom",
      "outputs": [],
      "stateMutability": "nonpayable",
      "type": "function"
    },
    {
      "inputs": [
        {
          "internalType": "address",
          "name": "from",
          "type": "address"
        },
        {
          "internalType": "address",
          "name": "to",
          "type": "address"
        },
        {
          "internalType": "uint256",
          "name": "tokenId",
          "type": "uint256"
        },
        {
          "internalType": "bytes",
          "name": "data",
          "type": "bytes"
        }
      ],
      "name": "safeTransferFrom",
      "outputs": [],
      "stateMutability": "nonpayable",
      "type": "function"
    },
    {
      "inputs": [
        {
          "internalType": "address",
          "name": "operator",
          "type": "address"
        },
        {
          "internalType": "bool",
          "name": "approved",
          "type": "bool"
        }
      ],
      "name": "setApprovalForAll",
      "outputs": [],
      "stateMutability": "nonpayable",
      "type": "function"
    },
    {
      "inputs": [
        {
          "internalType": "string",
          "name": "baseURI_",
          "type": "string"
        }
      ],
      "name": "setBaseURI",
      "outputs": [],
      "stateMutability": "nonpayable",
      "type": "function"
    },
    {
      "inputs": [
        {
          "internalType": "bytes4",
          "name": "interfaceId",
          "type": "bytes4"
        }
      ],
      "name": "supportsInterface",
      "outputs": [
        {
          "internalType": "bool",
          "name": "",
          "type": "bool"
        }
      ],
      "stateMutability": "view",
      "type": "function"
    },
    {
      "inputs": [],
      "name": "symbol",
      "outputs": [
        {
          "internalType": "string",
          "name": "",
          "type": "string"
        }
      ],
      "stateMutability": "view",
      "type": "function"
    },
    {
      "inputs": [
        {
          "internalType": "uint256",
          "name": "tokenId",
          "type": "uint256"
        }
      ],
      "name": "tokenURI",
      "outputs": [
        {
          "internalType": "string",
          "name": "",
          "type": "string"
        }
      ],
      "stateMutability": "view",
      "type": "function"
    },
    {
      "inputs": [],
      "name": "totalSupply",
      "outputs": [
        {
          "internalType": "uint256",
          "name": "",
          "type": "uint256"
        }
      ],
      "stateMutability": "view",
      "type": "function"
    },
    {
      "inputs": [
        {
          "internalType": "address",
          "name": "from",
          "type": "address"
        },
        {
          "internalType": "address",
          "name": "to",
          "type": "address"
        },
        {
          "internalType": "uint256",
          "name": "tokenId",
          "type": "uint256"
        }
      ],
      "name": "transferFrom",
      "outputs": [],
      "stateMutability": "nonpayable",
      "type": "function"
    }
  ],
  "transactionHash": "0x3fcd6594c5a9ca388d1fd2a9e8a382d966c988cea69bbfe5cc362d689691cfbe",
  "args": [
    " Disco District",
    "DISCO",
    "https://ipfs.io/ipfs/QmZexWfWGZWCmsbY2FUp8N8CvSZeYRu3ucJ74wWX18AZip/",
    {
      "name": "DistrictLabs",
      "description": "DistrictLabs",
      "image": "",
      "externalLink": "https://districtlabs.com",
      "sellerFeeBasisPoints": "0",
      "feeRecipient": "0x0000000000000000000000000000000000000000"
    },
    "0xaf9bE646d8C3E56b9495A8d1934895c341C7c8eB",
    75
  ],
  "numDeployments": 1,
  "solcInputHash": "799b9bbfb19c073f6069dd23c20c365c",
  "bytecode": "0x608060405260006007553480156200001657600080fd5b506040516200282c3803806200282c83398101604081905262000039916200041d565b8585600062000049838262000580565b50600162000058828262000580565b505060078054915060006200006d836200064c565b909155506008905062000081858262000580565b5082518390600a90819062000097908262000580565b5060208201516001820190620000ae908262000580565b5060408201516002820190620000c5908262000580565b5060608201516003820190620000dc908262000580565b5060808201516004820190620000f3908262000580565b5060a082015160058201906200010a908262000580565b50505060098190556200011f6000836200012b565b50505050505062000674565b6200013782826200013b565b5050565b60008281526006602090815260408083206001600160a01b038516845290915290205460ff16620001375760008281526006602090815260408083206001600160a01b03851684529091529020805460ff191660011790556200019b3390565b6001600160a01b0316816001600160a01b0316837f2f8788117e7eff1d82e926ec794901d17c78024a50270940304540a733656f0d60405160405180910390a45050565b634e487b7160e01b600052604160045260246000fd5b60405160c081016001600160401b03811182821017156200021a576200021a620001df565b60405290565b604051601f8201601f191681016001600160401b03811182821017156200024b576200024b620001df565b604052919050565b600082601f8301126200026557600080fd5b81516001600160401b03811115620002815762000281620001df565b602062000297601f8301601f1916820162000220565b8281528582848701011115620002ac57600080fd5b60005b83811015620002cc578581018301518282018401528201620002af565b83811115620002de5760008385840101525b5095945050505050565b600060c08284031215620002fb57600080fd5b62000305620001f5565b82519091506001600160401b03808211156200032057600080fd5b6200032e8583860162000253565b835260208401519150808211156200034557600080fd5b620003538583860162000253565b602084015260408401519150808211156200036d57600080fd5b6200037b8583860162000253565b604084015260608401519150808211156200039557600080fd5b620003a38583860162000253565b60608401526080840151915080821115620003bd57600080fd5b620003cb8583860162000253565b608084015260a0840151915080821115620003e557600080fd5b50620003f48482850162000253565b60a08301525092915050565b80516001600160a01b03811681146200041857600080fd5b919050565b60008060008060008060c087890312156200043757600080fd5b86516001600160401b03808211156200044f57600080fd5b6200045d8a838b0162000253565b975060208901519150808211156200047457600080fd5b620004828a838b0162000253565b965060408901519150808211156200049957600080fd5b620004a78a838b0162000253565b95506060890151915080821115620004be57600080fd5b50620004cd89828a01620002e8565b935050620004de6080880162000400565b915060a087015190509295509295509295565b600181811c908216806200050657607f821691505b6020821081036200052757634e487b7160e01b600052602260045260246000fd5b50919050565b601f8211156200057b57600081815260208120601f850160051c81016020861015620005565750805b601f850160051c820191505b81811015620005775782815560010162000562565b5050505b505050565b81516001600160401b038111156200059c576200059c620001df565b620005b481620005ad8454620004f1565b846200052d565b602080601f831160018114620005ec5760008415620005d35750858301515b600019600386901b1c1916600185901b17855562000577565b600085815260208120601f198616915b828110156200061d57888601518255948401946001909101908401620005fc565b50858210156200063c5787850151600019600388901b60f8161c191681555b5050505050600190811b01905550565b6000600182016200066d57634e487b7160e01b600052601160045260246000fd5b5060010190565b6121a880620006846000396000f3fe608060405234801561001057600080fd5b50600436106101c45760003560e01c806370a08231116100f9578063a22cb46511610097578063c87b56dd11610071578063c87b56dd146103ce578063d547741f146103e1578063e8a3d485146103f4578063e985e9c5146103fc57600080fd5b8063a22cb46514610388578063b646a0e31461039b578063b88d4fde146103bb57600080fd5b806391d14854116100d357806391d148541461035257806395d89b4114610365578063994e75d11461036d578063a217fddf1461038057600080fd5b806370a082311461031757806372c328601461032a578063879455c71461033f57600080fd5b80632f2ff15d1161016657806342966c681161014057806342966c68146102cb57806355f804b3146102de5780636352211e146102f15780636a6278421461030457600080fd5b80632f2ff15d1461029257806336568abe146102a557806342842e0e146102b857600080fd5b8063095ea7b3116101a2578063095ea7b31461023157806318160ddd1461024657806323b872dd1461025c578063248a9ca31461026f57600080fd5b806301ffc9a7146101c957806306fdde03146101f1578063081812fc14610206575b600080fd5b6101dc6101d73660046117ba565b610438565b60405190151581526020015b60405180910390f35b6101f9610449565b6040516101e8919061182f565b610219610214366004611842565b6104db565b6040516001600160a01b0390911681526020016101e8565b61024461023f366004611877565b610502565b005b61024e61061c565b6040519081526020016101e8565b61024461026a3660046118a1565b610632565b61024e61027d366004611842565b60009081526006602052604090206001015490565b6102446102a03660046118dd565b610663565b6102446102b33660046118dd565b610688565b6102446102c63660046118a1565b610706565b6102446102d9366004611842565b610721565b6102446102ec366004611995565b610761565b6102196102ff366004611842565b610794565b6102446103123660046119de565b6107f4565b61024e6103253660046119de565b610868565b61024e60008051602061215383398151915281565b61024461034d3660046119de565b6108ee565b6101dc6103603660046118dd565b61092d565b6101f9610958565b61024461037b3660046119de565b610967565b61024e600081565b6102446103963660046119f9565b6109a6565b61024e6103a9366004611842565b60116020526000908152604090205481565b6102446103c9366004611a35565b6109b1565b6101f96103dc366004611842565b6109e9565b6102446103ef3660046118dd565b610a71565b6101f9610a96565b6101dc61040a366004611ab1565b6001600160a01b03918216600090815260056020908152604080832093909416825291909152205460ff1690565b600061044382610af6565b92915050565b60606000805461045890611adb565b80601f016020809104026020016040519081016040528092919081815260200182805461048490611adb565b80156104d15780601f106104a6576101008083540402835291602001916104d1565b820191906000526020600020905b8154815290600101906020018083116104b457829003601f168201915b5050505050905090565b60006104e682610b1b565b506000908152600460205260409020546001600160a01b031690565b600061050d82610794565b9050806001600160a01b0316836001600160a01b03160361057f5760405162461bcd60e51b815260206004820152602160248201527f4552433732313a20617070726f76616c20746f2063757272656e74206f776e656044820152603960f91b60648201526084015b60405180910390fd5b336001600160a01b038216148061059b575061059b813361040a565b61060d5760405162461bcd60e51b815260206004820152603e60248201527f4552433732313a20617070726f76652063616c6c6572206973206e6f7420746f60448201527f6b656e206f776e6572206e6f7220617070726f76656420666f7220616c6c00006064820152608401610576565b6106178383610b7a565b505050565b6000600160075461062d9190611b2b565b905090565b61063c3382610be8565b6106585760405162461bcd60e51b815260040161057690611b42565b610617838383610c66565b60008281526006602052604090206001015461067e81610e02565b6106178383610e0c565b6001600160a01b03811633146106f85760405162461bcd60e51b815260206004820152602f60248201527f416363657373436f6e74726f6c3a2063616e206f6e6c792072656e6f756e636560448201526e103937b632b9903337b91039b2b63360891b6064820152608401610576565b6107028282610e92565b5050565b610617838383604051806020016040528060008152506109b1565b6107396000805160206121538339815191523361092d565b6107555760405162461bcd60e51b815260040161057690611b90565b61075e81610ef9565b50565b61076c60003361092d565b6107885760405162461bcd60e51b815260040161057690611b90565b60086107028282611c15565b6000818152600260205260408120546001600160a01b0316806104435760405162461bcd60e51b8152602060048201526018602482015277115490cdcc8c4e881a5b9d985b1a59081d1bdad95b88125160421b6044820152606401610576565b61080c6000805160206121538339815191523361092d565b6108285760405162461bcd60e51b815260040161057690611b90565b60078054600181019091556001600160a01b0382166000908152601060209081526040808320849055838352601190915290204290556107028282610f94565b60006001600160a01b0382166108d25760405162461bcd60e51b815260206004820152602960248201527f4552433732313a2061646472657373207a65726f206973206e6f7420612076616044820152683634b21037bbb732b960b91b6064820152608401610576565b506001600160a01b031660009081526003602052604090205490565b6108f960003361092d565b6109155760405162461bcd60e51b815260040161057690611b90565b61075e60008051602061215383398151915282610663565b60009182526006602090815260408084206001600160a01b0393909316845291905290205460ff1690565b60606001805461045890611adb565b61097260003361092d565b61098e5760405162461bcd60e51b815260040161057690611b90565b61075e60008051602061215383398151915282610a71565b6107023383836110d6565b6109bb3383610be8565b6109d75760405162461bcd60e51b815260040161057690611b42565b6109e3848484846111a4565b50505050565b600954600082815260116020526040812054606092610a0791611ceb565b610a12906001611cff565b90506000610a1e6111d7565b90506000815111610a3e5760405180602001604052806000815250610a69565b80610a48836111e6565b604051602001610a59929190611d17565b6040516020818303038152906040525b949350505050565b600082815260066020526040902060010154610a8c81610e02565b6106178383610e92565b604051606090610ad290610abe90600a90600b90600c90600d90600e90600f90602001611dc9565b6040516020818303038152906040526112e7565b604051602001610ae29190611f33565b604051602081830303815290604052905090565b60006001600160e01b03198216637965db0b60e01b148061044357506104438261144c565b6000818152600260205260409020546001600160a01b031661075e5760405162461bcd60e51b8152602060048201526018602482015277115490cdcc8c4e881a5b9d985b1a59081d1bdad95b88125160421b6044820152606401610576565b600081815260046020526040902080546001600160a01b0319166001600160a01b0384169081179091558190610baf82610794565b6001600160a01b03167f8c5be1e5ebec7d5bd14f71427d1e84f3dd0314c0f7b2291e5b200ac8c7c3b92560405160405180910390a45050565b600080610bf483610794565b9050806001600160a01b0316846001600160a01b03161480610c3b57506001600160a01b0380821660009081526005602090815260408083209388168352929052205460ff165b80610a695750836001600160a01b0316610c54846104db565b6001600160a01b031614949350505050565b826001600160a01b0316610c7982610794565b6001600160a01b031614610cdd5760405162461bcd60e51b815260206004820152602560248201527f4552433732313a207472616e736665722066726f6d20696e636f72726563742060448201526437bbb732b960d91b6064820152608401610576565b6001600160a01b038216610d3f5760405162461bcd60e51b8152602060048201526024808201527f4552433732313a207472616e7366657220746f20746865207a65726f206164646044820152637265737360e01b6064820152608401610576565b610d4a600082610b7a565b6001600160a01b0383166000908152600360205260408120805460019290610d73908490611b2b565b90915550506001600160a01b0382166000908152600360205260408120805460019290610da1908490611cff565b909155505060008181526002602052604080822080546001600160a01b0319166001600160a01b0386811691821790925591518493918716917fddf252ad1be2c89b69c2b068fc378daa952ba7f163c4a11628f55a4df523b3ef91a4505050565b61075e813361149c565b610e16828261092d565b6107025760008281526006602090815260408083206001600160a01b03851684529091529020805460ff19166001179055610e4e3390565b6001600160a01b0316816001600160a01b0316837f2f8788117e7eff1d82e926ec794901d17c78024a50270940304540a733656f0d60405160405180910390a45050565b610e9c828261092d565b156107025760008281526006602090815260408083206001600160a01b0385168085529252808320805460ff1916905551339285917ff6391f5c32d9c69d2a47ea670b442974b53935d1edc7fd64eb21e047a839171b9190a45050565b6000610f0482610794565b9050610f11600083610b7a565b6001600160a01b0381166000908152600360205260408120805460019290610f3a908490611b2b565b909155505060008281526002602052604080822080546001600160a01b0319169055518391906001600160a01b038416907fddf252ad1be2c89b69c2b068fc378daa952ba7f163c4a11628f55a4df523b3ef908390a45050565b6001600160a01b038216610fea5760405162461bcd60e51b815260206004820181905260248201527f4552433732313a206d696e7420746f20746865207a65726f20616464726573736044820152606401610576565b6000818152600260205260409020546001600160a01b03161561104f5760405162461bcd60e51b815260206004820152601c60248201527f4552433732313a20746f6b656e20616c7265616479206d696e746564000000006044820152606401610576565b6001600160a01b0382166000908152600360205260408120805460019290611078908490611cff565b909155505060008181526002602052604080822080546001600160a01b0319166001600160a01b03861690811790915590518392907fddf252ad1be2c89b69c2b068fc378daa952ba7f163c4a11628f55a4df523b3ef908290a45050565b816001600160a01b0316836001600160a01b0316036111375760405162461bcd60e51b815260206004820152601960248201527f4552433732313a20617070726f766520746f2063616c6c6572000000000000006044820152606401610576565b6001600160a01b03838116600081815260056020908152604080832094871680845294825291829020805460ff191686151590811790915591519182527f17307eab39ab6107e8899845ad3d59bd9653f200f220920489ca2b5937696c31910160405180910390a3505050565b6111af848484610c66565b6111bb84848484611500565b6109e35760405162461bcd60e51b815260040161057690611f78565b60606008805461045890611adb565b60608160000361120d5750506040805180820190915260018152600360fc1b602082015290565b8160005b8115611237578061122181611fca565b91506112309050600a83611fe3565b9150611211565b60008167ffffffffffffffff81111561125257611252611909565b6040519080825280601f01601f19166020018201604052801561127c576020820181803683370190505b5090505b8415610a6957611291600183611b2b565b915061129e600a86611ceb565b6112a9906030611cff565b60f81b8183815181106112be576112be611ff7565b60200101906001600160f81b031916908160001a9053506112e0600a86611fe3565b9450611280565b6060815160000361130657505060408051602081019091526000815290565b600060405180606001604052806040815260200161211360409139905060006003845160026113359190611cff565b61133f9190611fe3565b61134a90600461200d565b90506000611359826020611cff565b67ffffffffffffffff81111561137157611371611909565b6040519080825280601f01601f19166020018201604052801561139b576020820181803683370190505b509050818152600183018586518101602084015b81831015611407576003830192508251603f8160121c168501518253600182019150603f81600c1c168501518253600182019150603f8160061c168501518253600182019150603f81168501518253506001016113af565b60038951066001811461142157600281146114325761143e565b613d3d60f01b60011983015261143e565b603d60f81b6000198301525b509398975050505050505050565b60006001600160e01b031982166380ac58cd60e01b148061147d57506001600160e01b03198216635b5e139f60e01b145b8061044357506301ffc9a760e01b6001600160e01b0319831614610443565b6114a6828261092d565b610702576114be816001600160a01b03166014611601565b6114c9836020611601565b6040516020016114da92919061202c565b60408051601f198184030181529082905262461bcd60e51b82526105769160040161182f565b60006001600160a01b0384163b156115f657604051630a85bd0160e11b81526001600160a01b0385169063150b7a02906115449033908990889088906004016120a1565b6020604051808303816000875af192505050801561157f575060408051601f3d908101601f1916820190925261157c918101906120de565b60015b6115dc573d8080156115ad576040519150601f19603f3d011682016040523d82523d6000602084013e6115b2565b606091505b5080516000036115d45760405162461bcd60e51b815260040161057690611f78565b805181602001fd5b6001600160e01b031916630a85bd0160e11b149050610a69565b506001949350505050565b6060600061161083600261200d565b61161b906002611cff565b67ffffffffffffffff81111561163357611633611909565b6040519080825280601f01601f19166020018201604052801561165d576020820181803683370190505b509050600360fc1b8160008151811061167857611678611ff7565b60200101906001600160f81b031916908160001a905350600f60fb1b816001815181106116a7576116a7611ff7565b60200101906001600160f81b031916908160001a90535060006116cb84600261200d565b6116d6906001611cff565b90505b600181111561174e576f181899199a1a9b1b9c1cb0b131b232b360811b85600f166010811061170a5761170a611ff7565b1a60f81b82828151811061172057611720611ff7565b60200101906001600160f81b031916908160001a90535060049490941c93611747816120fb565b90506116d9565b50831561179d5760405162461bcd60e51b815260206004820181905260248201527f537472696e67733a20686578206c656e67746820696e73756666696369656e746044820152606401610576565b9392505050565b6001600160e01b03198116811461075e57600080fd5b6000602082840312156117cc57600080fd5b813561179d816117a4565b60005b838110156117f25781810151838201526020016117da565b838111156109e35750506000910152565b6000815180845261181b8160208601602086016117d7565b601f01601f19169290920160200192915050565b60208152600061179d6020830184611803565b60006020828403121561185457600080fd5b5035919050565b80356001600160a01b038116811461187257600080fd5b919050565b6000806040838503121561188a57600080fd5b6118938361185b565b946020939093013593505050565b6000806000606084860312156118b657600080fd5b6118bf8461185b565b92506118cd6020850161185b565b9150604084013590509250925092565b600080604083850312156118f057600080fd5b823591506119006020840161185b565b90509250929050565b634e487b7160e01b600052604160045260246000fd5b600067ffffffffffffffff8084111561193a5761193a611909565b604051601f8501601f19908116603f0116810190828211818310171561196257611962611909565b8160405280935085815286868601111561197b57600080fd5b858560208301376000602087830101525050509392505050565b6000602082840312156119a757600080fd5b813567ffffffffffffffff8111156119be57600080fd5b8201601f810184136119cf57600080fd5b610a698482356020840161191f565b6000602082840312156119f057600080fd5b61179d8261185b565b60008060408385031215611a0c57600080fd5b611a158361185b565b915060208301358015158114611a2a57600080fd5b809150509250929050565b60008060008060808587031215611a4b57600080fd5b611a548561185b565b9350611a626020860161185b565b925060408501359150606085013567ffffffffffffffff811115611a8557600080fd5b8501601f81018713611a9657600080fd5b611aa58782356020840161191f565b91505092959194509250565b60008060408385031215611ac457600080fd5b611acd8361185b565b91506119006020840161185b565b600181811c90821680611aef57607f821691505b602082108103611b0f57634e487b7160e01b600052602260045260246000fd5b50919050565b634e487b7160e01b600052601160045260246000fd5b600082821015611b3d57611b3d611b15565b500390565b6020808252602e908201527f4552433732313a2063616c6c6572206973206e6f7420746f6b656e206f776e6560408201526d1c881b9bdc88185c1c1c9bdd995960921b606082015260800190565b60208082526018908201527f446973636f4552433732313a756e617574686f72697a65640000000000000000604082015260600190565b601f82111561061757600081815260208120601f850160051c81016020861015611bee5750805b601f850160051c820191505b81811015611c0d57828155600101611bfa565b505050505050565b815167ffffffffffffffff811115611c2f57611c2f611909565b611c4381611c3d8454611adb565b84611bc7565b602080601f831160018114611c785760008415611c605750858301515b600019600386901b1c1916600185901b178555611c0d565b600085815260208120601f198616915b82811015611ca757888601518255948401946001909101908401611c88565b5085821015611cc55787850151600019600388901b60f8161c191681555b5050505050600190811b01905550565b634e487b7160e01b600052601260045260246000fd5b600082611cfa57611cfa611cd5565b500690565b60008219821115611d1257611d12611b15565b500190565b60008351611d298184602088016117d7565b835190830190611d3d8183602088016117d7565b64173539b7b760d91b9101908152600501949350505050565b60008154611d6381611adb565b60018281168015611d7b5760018114611d9057611dbf565b60ff1984168752821515830287019450611dbf565b8560005260208060002060005b85811015611db65781548a820152908401908201611d9d565b50505082870194505b5050505092915050565b673d913730b6b2911d60c11b8152601160f91b60088201526000611df06009830189611d56565b61088b60f21b81526002611e168183016d113232b9b1b934b83a34b7b7111d60911b9052565b601160f91b6010830152611e2d601183018a611d56565b61088b60f21b81529150671134b6b0b3b2911d60c11b82820152601160f91b600a830152611e5e600b830189611d56565b61088b60f21b815291506e1132bc3a32b93730b62634b735911d60891b82820152601160f91b6011830152611e966012830188611d56565b61088b60f21b815291507f2273656c6c65724665654261736973506f696e7473223a00000000000000000082820152601160f91b6019830152611edc601a830187611d56565b61088b60f21b815291506e113332b2a932b1b4b834b2b73a111d60891b82820152601160f91b6011830152611f146012830186611d56565b601160f91b8152607d60f81b6001820152019998505050505050505050565b7f646174613a6170706c69636174696f6e2f6a736f6e3b6261736536342c000000815260008251611f6b81601d8501602087016117d7565b91909101601d0192915050565b60208082526032908201527f4552433732313a207472616e7366657220746f206e6f6e20455243373231526560408201527131b2b4bb32b91034b6b83632b6b2b73a32b960711b606082015260800190565b600060018201611fdc57611fdc611b15565b5060010190565b600082611ff257611ff2611cd5565b500490565b634e487b7160e01b600052603260045260246000fd5b600081600019048311821515161561202757612027611b15565b500290565b7f416363657373436f6e74726f6c3a206163636f756e74200000000000000000008152600083516120648160178501602088016117d7565b7001034b99036b4b9b9b4b733903937b6329607d1b60179184019182015283516120958160288401602088016117d7565b01602801949350505050565b6001600160a01b03858116825284166020820152604081018390526080606082018190526000906120d490830184611803565b9695505050505050565b6000602082840312156120f057600080fd5b815161179d816117a4565b60008161210a5761210a611b15565b50600019019056fe4142434445464748494a4b4c4d4e4f505152535455565758595a6162636465666768696a6b6c6d6e6f707172737475767778797a303132333435363738392b2fcfd53186d792f1ec9d0679afc2dc3ffc86fc31fe1e0f342b838eb6c3eade62b3a2646970667358221220aa10aac555650967b7ee73d9278310e270aef8151d629eddff4388df05166fa264736f6c634300080f0033",
  "devdoc": {
    "kind": "dev",
    "methods": {
      "approve(address,uint256)": {
        "details": "See {IERC721-approve}."
      },
      "balanceOf(address)": {
        "details": "See {IERC721-balanceOf}."
      },
      "burn(uint256)": {
        "params": {
          "tokenId": "uint256 - Token ID to burn"
        }
      },
      "getApproved(uint256)": {
        "details": "See {IERC721-getApproved}."
      },
      "getRoleAdmin(bytes32)": {
        "details": "Returns the admin role that controls `role`. See {grantRole} and {revokeRole}. To change a role's admin, use {_setRoleAdmin}."
      },
      "grantMinterBurnerRole(address)": {
        "params": {
          "_minterBurner": "address - Address to grant the role to"
        }
      },
      "grantRole(bytes32,address)": {
        "details": "Grants `role` to `account`. If `account` had not been already granted `role`, emits a {RoleGranted} event. Requirements: - the caller must have ``role``'s admin role. May emit a {RoleGranted} event."
      },
      "hasRole(bytes32,address)": {
        "details": "Returns `true` if `account` has been granted `role`."
      },
      "isApprovedForAll(address,address)": {
        "details": "See {IERC721-isApprovedForAll}."
      },
      "mint(address)": {
        "params": {
          "to": "address - Address to mint to`"
        }
      },
      "name()": {
        "details": "See {IERC721Metadata-name}."
      },
      "ownerOf(uint256)": {
        "details": "See {IERC721-ownerOf}."
      },
      "renounceRole(bytes32,address)": {
        "details": "Revokes `role` from the calling account. Roles are often managed via {grantRole} and {revokeRole}: this function's purpose is to provide a mechanism for accounts to lose their privileges if they are compromised (such as when a trusted device is misplaced). If the calling account had been revoked `role`, emits a {RoleRevoked} event. Requirements: - the caller must be `account`. May emit a {RoleRevoked} event."
      },
      "revokeMinterBurner(address)": {
        "params": {
          "_minterBurner": "address - Address to revoke the role from"
        }
      },
      "revokeRole(bytes32,address)": {
        "details": "Revokes `role` from `account`. If `account` had been granted `role`, emits a {RoleRevoked} event. Requirements: - the caller must have ``role``'s admin role. May emit a {RoleRevoked} event."
      },
      "safeTransferFrom(address,address,uint256)": {
        "details": "See {IERC721-safeTransferFrom}."
      },
      "safeTransferFrom(address,address,uint256,bytes)": {
        "details": "See {IERC721-safeTransferFrom}."
      },
      "setApprovalForAll(address,bool)": {
        "details": "See {IERC721-setApprovalForAll}."
      },
      "symbol()": {
        "details": "See {IERC721Metadata-symbol}."
      },
      "transferFrom(address,address,uint256)": {
        "details": "See {IERC721-transferFrom}."
      }
    },
    "version": 1
  },
  "userdoc": {
    "kind": "user",
    "methods": {
      "_tokenIdToTimestamp(uint256)": {
        "notice": "Map to track tokenId to block timestamp when minted"
      },
      "burn(uint256)": {
        "notice": "Burns a token"
      },
      "grantMinterBurnerRole(address)": {
        "notice": "Grants the MINTER_BURNER_ROLE to the given address"
      },
      "mint(address)": {
        "notice": "Mints a new token to the given address"
      },
      "revokeMinterBurner(address)": {
        "notice": "Revokes the MINTER_BURNER_ROLE from the given address"
      },
      "tokenURI(uint256)": {
        "notice": "Override: returns the the tokens uri metadata based on the timestamp minted"
      }
    },
    "version": 1
  },
  "storageLayout": {
    "storage": [
      {
        "astId": 1220,
        "contract": "contracts/DiscoERC721.sol:DiscoERC721",
        "label": "_name",
        "offset": 0,
        "slot": "0",
        "type": "t_string_storage"
      },
      {
        "astId": 1222,
        "contract": "contracts/DiscoERC721.sol:DiscoERC721",
        "label": "_symbol",
        "offset": 0,
        "slot": "1",
        "type": "t_string_storage"
      },
      {
        "astId": 1226,
        "contract": "contracts/DiscoERC721.sol:DiscoERC721",
        "label": "_owners",
        "offset": 0,
        "slot": "2",
        "type": "t_mapping(t_uint256,t_address)"
      },
      {
        "astId": 1230,
        "contract": "contracts/DiscoERC721.sol:DiscoERC721",
        "label": "_balances",
        "offset": 0,
        "slot": "3",
        "type": "t_mapping(t_address,t_uint256)"
      },
      {
        "astId": 1234,
        "contract": "contracts/DiscoERC721.sol:DiscoERC721",
        "label": "_tokenApprovals",
        "offset": 0,
        "slot": "4",
        "type": "t_mapping(t_uint256,t_address)"
      },
      {
        "astId": 1240,
        "contract": "contracts/DiscoERC721.sol:DiscoERC721",
        "label": "_operatorApprovals",
        "offset": 0,
        "slot": "5",
        "type": "t_mapping(t_address,t_mapping(t_address,t_bool))"
      },
      {
        "astId": 24,
        "contract": "contracts/DiscoERC721.sol:DiscoERC721",
        "label": "_roles",
        "offset": 0,
        "slot": "6",
        "type": "t_mapping(t_bytes32,t_struct(RoleData)19_storage)"
      },
      {
        "astId": 8328,
        "contract": "contracts/DiscoERC721.sol:DiscoERC721",
        "label": "_idCounter",
        "offset": 0,
        "slot": "7",
        "type": "t_uint256"
      },
      {
        "astId": 8330,
        "contract": "contracts/DiscoERC721.sol:DiscoERC721",
        "label": "_baseTokenURI",
        "offset": 0,
        "slot": "8",
        "type": "t_string_storage"
      },
      {
        "astId": 8332,
        "contract": "contracts/DiscoERC721.sol:DiscoERC721",
        "label": "_numberOfImages",
        "offset": 0,
        "slot": "9",
        "type": "t_uint256"
      },
      {
        "astId": 8335,
        "contract": "contracts/DiscoERC721.sol:DiscoERC721",
        "label": "_contractURI",
        "offset": 0,
        "slot": "10",
        "type": "t_struct(ContractURI)8348_storage"
      },
      {
        "astId": 8352,
        "contract": "contracts/DiscoERC721.sol:DiscoERC721",
        "label": "_tokenOwner",
        "offset": 0,
        "slot": "16",
        "type": "t_mapping(t_address,t_uint256)"
      },
      {
        "astId": 8357,
        "contract": "contracts/DiscoERC721.sol:DiscoERC721",
        "label": "_tokenIdToTimestamp",
        "offset": 0,
        "slot": "17",
        "type": "t_mapping(t_uint256,t_uint256)"
      }
    ],
    "types": {
      "t_address": {
        "encoding": "inplace",
        "label": "address",
        "numberOfBytes": "20"
      },
      "t_bool": {
        "encoding": "inplace",
        "label": "bool",
        "numberOfBytes": "1"
      },
      "t_bytes32": {
        "encoding": "inplace",
        "label": "bytes32",
        "numberOfBytes": "32"
      },
      "t_mapping(t_address,t_bool)": {
        "encoding": "mapping",
        "key": "t_address",
        "label": "mapping(address => bool)",
        "numberOfBytes": "32",
        "value": "t_bool"
      },
      "t_mapping(t_address,t_mapping(t_address,t_bool))": {
        "encoding": "mapping",
        "key": "t_address",
        "label": "mapping(address => mapping(address => bool))",
        "numberOfBytes": "32",
        "value": "t_mapping(t_address,t_bool)"
      },
      "t_mapping(t_address,t_uint256)": {
        "encoding": "mapping",
        "key": "t_address",
        "label": "mapping(address => uint256)",
        "numberOfBytes": "32",
        "value": "t_uint256"
      },
      "t_mapping(t_bytes32,t_struct(RoleData)19_storage)": {
        "encoding": "mapping",
        "key": "t_bytes32",
        "label": "mapping(bytes32 => struct AccessControl.RoleData)",
        "numberOfBytes": "32",
        "value": "t_struct(RoleData)19_storage"
      },
      "t_mapping(t_uint256,t_address)": {
        "encoding": "mapping",
        "key": "t_uint256",
        "label": "mapping(uint256 => address)",
        "numberOfBytes": "32",
        "value": "t_address"
      },
      "t_mapping(t_uint256,t_uint256)": {
        "encoding": "mapping",
        "key": "t_uint256",
        "label": "mapping(uint256 => uint256)",
        "numberOfBytes": "32",
        "value": "t_uint256"
      },
      "t_string_storage": {
        "encoding": "bytes",
        "label": "string",
        "numberOfBytes": "32"
      },
      "t_struct(ContractURI)8348_storage": {
        "encoding": "inplace",
        "label": "struct DiscoERC721.ContractURI",
        "members": [
          {
            "astId": 8337,
            "contract": "contracts/DiscoERC721.sol:DiscoERC721",
            "label": "name",
            "offset": 0,
            "slot": "0",
            "type": "t_string_storage"
          },
          {
            "astId": 8339,
            "contract": "contracts/DiscoERC721.sol:DiscoERC721",
            "label": "description",
            "offset": 0,
            "slot": "1",
            "type": "t_string_storage"
          },
          {
            "astId": 8341,
            "contract": "contracts/DiscoERC721.sol:DiscoERC721",
            "label": "image",
            "offset": 0,
            "slot": "2",
            "type": "t_string_storage"
          },
          {
            "astId": 8343,
            "contract": "contracts/DiscoERC721.sol:DiscoERC721",
            "label": "externalLink",
            "offset": 0,
            "slot": "3",
            "type": "t_string_storage"
          },
          {
            "astId": 8345,
            "contract": "contracts/DiscoERC721.sol:DiscoERC721",
            "label": "sellerFeeBasisPoints",
            "offset": 0,
            "slot": "4",
            "type": "t_string_storage"
          },
          {
            "astId": 8347,
            "contract": "contracts/DiscoERC721.sol:DiscoERC721",
            "label": "feeRecipient",
            "offset": 0,
            "slot": "5",
            "type": "t_string_storage"
          }
        ],
        "numberOfBytes": "192"
      },
      "t_struct(RoleData)19_storage": {
        "encoding": "inplace",
        "label": "struct AccessControl.RoleData",
        "members": [
          {
            "astId": 16,
            "contract": "contracts/DiscoERC721.sol:DiscoERC721",
            "label": "members",
            "offset": 0,
            "slot": "0",
            "type": "t_mapping(t_address,t_bool)"
          },
          {
            "astId": 18,
            "contract": "contracts/DiscoERC721.sol:DiscoERC721",
            "label": "adminRole",
            "offset": 0,
            "slot": "1",
            "type": "t_bytes32"
          }
        ],
        "numberOfBytes": "64"
      },
      "t_uint256": {
        "encoding": "inplace",
        "label": "uint256",
        "numberOfBytes": "32"
      }
    }
  }
}